:100000000C94C5050C94E2050C94E2050C94A930FF
:100010000C94E2050C94E2050C94E2050C94E205C4
:100020000C94E2050C94E2050C9485150C944F1A7F
:100030000C9473280C94E2050C94E2050C94E205F0
:100040000C94E2050C94E2050C94E2050C94E20594
:100050000C94E2050C942F150C94E2050C94E20527
:100060000C94E2050C94E2050C94E2050C94E20574
:100070000C94E2050C94E2050C94E2050C94E20564
:100080000C94E2050C94E2050C94E2050C94E20554
:100090000C94E2050C94E2050C94E2050C94E20544
:1000A0000C94E2050C94E2050C94E205080808089B
:1000B00008080829001E001F002000210022002B34
:1000C0000014001A00080015001700E100040016D3
:1000D00000070009000A00E0001D001B00060019CF
:1000E0000005000000E300E20061522C002F002A0E
:1000F00000270026002500240023003100130012F1
:10010000000C0018001C00340033000F000E000D1E
:10011000000B002D003800370036001000110000E1
:10012000002E004E004B0028003000A500A6000065
:10013000000000000000000000000000005200006D
:1001400000000000000000500051004F0000007B44
:10015000007C007D000000000000000000000000A6
:100160000060522C007E00AE00A9005600550054DD
:10017000005300AD00AA005700610060005F00ABB3
:1001800000A80085005E005D005C00AC00B2006766
:10019000005B005A0059000000580063006200280C
:1001A000002900FCFEFFFFFFFFFFFFFFFFFFFFFF37
:1001B000FFFFFFFFFFFFFFFFFFFFFFFFFFFFFFFF4F
:1001C000FFFFFFFFFFFFFFFF1F1F1F1F1FFFFFFF9F
:1001D000FFFFFFFFFFFFFFFFFFFFFFFFFEFC000031
:1001E00000F8F8000000000000000080800000E03F
:1001F000E0000000000000000000000000F8F81817
:1002000018181818180000F0F81818181818F8F02E
:1002100000000000000000000000000000000000DE
:10022000000000FFFFFFFFFF0707070707FF0707A3
:10023000070707FF0707070707FF0707070707FF66
:100240000707070707FFFFFF0404040404FF07076D
:10025000070707FF0707070707FFFFFFFFFF00006C
:1002600000FFFF0000000000000000F9F90000FF9F
:10027000FF0000F8F800000000F8F800000707068B
:10028000060606FEFC0000FBFF0606060606FFFB50
:10029000000000000000000000000000000000005E
:1002A000000000FFFFFFFFFF4141414141FFFFFF11
:1002B000FFFFFFFF4141414141FFFFFFFFFFFFFF04
:1002C0004141414141FFFFFF4141414141FF7F7FAA
:1002D0007F7F7FFF4141414141FFFFFFFFFF000062
:1002E00000030303030303030300000303000003ED
:1002F000030000838383838383FFFF0000030303E2
:10030000030303030100000103030303030303E1E9
:10031000F030B0B070F030B0B070F070B0B070F0DD
:10032000E000003F7FFFFFFFF0F0F0F0F0FFFFFF85
:10033000FFFFFFFFF0F0F0F0F0FFFFFFFFFFFFFF18
:10034000F0F0F0F0F0FFFFFFF0F0F0F0F0FFF0F071
:10035000F0F0F0FFF0F0F0F0F0FFFFFF7F3F000063
:10036000000000000000000000000000000000008D
:100370000000000101010101010101000000000075
:100380000000000000000000000000000000001F4E
:100390003F303D3D3E3F303D3D323F383737383FBF
:1003A0001F0000000101010101010101010202021F
:1003B0000202020202020303030303030303040411
:1003C00004040404040505050505060606060607DB
:1003D0000707070708080808090909090A0A0A0B94
:1003E0000B0B0C0C0C0D0D0D0E0E0E0F0F0F101035
:1003F00011111112121313141415151616171718BC
:100400001819191A1A1B1B1C1D1D1E1E1F20202126
:100410002222232424252626272829292A2B2C2D6D
:100420002D2E2F30313232333435363738393A3B8E
:100430003C3D3E3F404142434445464748494A4C83
:100440004D4E4F50515354555658595A5B5D5E5F4F
:10045000616264656668696B6C6D6F7072737577E5
:10046000787A7B7D7E8082838587888A8C8E8F9147
:10047000939596989A9C9EA0A2A3A5A7A9ABADAF71
:10048000B1B3B5B7BABCBEC0C2C4C6C9CBCDCFD15B
:10049000D4D6D8DBDDDFE2E4E7E9EBEEF0F3F5F804
:1004A000FAFDFF00DA0281FFD9F1DB20A4A62EAF0E
:1004B00000A0C0D30000A1C8D30000AED580A81F03
:1004C000408D14200000AF00AE707070007070702E
:1004D000007070700070707000707070000077773E
:1004E0007700707070007070707777770000000090
:1004F0000077777700000000007777770000777744
:1005000077007070700077777705010902A1018587
:10051000020901A100050919012908150025019505
:1005200008750181020501093009311581257F9582
:10053000027508810609381581257F9501750881A6
:1005400006050C0A38021581257F9501750881067C
:10055000C0C005010980A101850319012AB7001552
:100560000126B700950175108100C0050C0901A195
:1005700001850419012AA002150126A00295017522
:10058000108100C005010906A101050719E029E74E
:1005900015002501950875018102950175088101F5
:1005A0000507190029FF150026FF0095067508812B
:1005B000000508190129051500250195057501910A
:1005C00002950175039101C009023B00020100A0E0
:1005D000FA090400000103010100092111010001D1
:1005E00022440007058103080001090401000103FA
:1005F000000000092111010001227B000705820390
:1006000020000112010002000000087171020000C8
:10061000010102000116034C0069006C00790035ED
:100620000038002000500072006F00000016034DDB
:100630000065006300680062006F00610072006482
:1006400000730000000403090407087F0807003E48
:100650005B4F5B3E003E6B4F6B3E001C3E7C3E1C86
:1006600000183C7E3C18001C577D571C001C5E7F08
:100670005E1C0000183C180000FFE7C3E7FF000005
:100680001824180000FFE7DBE7FF0030483A060EA9
:1006900000262979292600407F05050700407F05AF
:1006A000253F005A3CE73C5A007F3E1C1C080008CE
:1006B0001C1C3E7F0014227F2214005F5F005F5FDE
:1006C0000006097F017F00006689956A006060600E
:1006D00060600094A2FFA2940008047E0408001049
:1006E000207E20100008082A1C0800081C2A080880
:1006F000001E10101010000C1E0C1E0C0030383E96
:10070000383000060E3E0E0600000000000000001B
:10071000005F000000000700070000147F147F1432
:1007200000242A7F2A1200231308646200364956E7
:10073000205000000807030000001C2241000000B8
:1007400041221C00002A1C7F1C2A0008083E0808C1
:1007500000008070300000080808080800000060F1
:100760006000002010080402003E5149453E000090
:10077000427F4000007249494946002141494D33BA
:10078000001814127F10002745454539003C4A499E
:1007900049310041211109070036494949360046CF
:1007A0004949291E000000140000000040340000E8
:1007B00000000814224100141414141400004122F3
:1007C0001408000201590906003E415D594E007CA3
:1007D0001211127C007F49494936003E41414122B5
:1007E000007F4141413E007F49494941007F09095D
:1007F0000901003E41415173007F0808087F000055
:10080000417F4100002040413F01007F0814224108
:10081000007F40404040007F021C027F007F0408B0
:10082000107F003E4141413E007F09090906003E1C
:100830004151215E007F0919294600264949493264
:100840000003017F0103003F4040403F001F204064
:10085000201F003F4038403F00631408146300032A
:1008600004780403006159494D4300007F41414130
:1008700000020408102000004141417F00040201F1
:1008800002040040404040400000030708000020F0
:1008900054547840007F2844443800384444442865
:1008A00000384444287F0038545454180000087E0F
:1008B00009020018A4A49C78007F080404780000B2
:1008C000447D4000002040403D00007F102844004F
:1008D0000000417F4000007C04780478007C08041C
:1008E000047800384444443800FC182424180018C4
:1008F000242418FC007C08040408004854545424A0
:100900000004043F4424003C4040207C001C204064
:10091000201C003C4030403C004428102844004C3F
:100920009090907C004464544C4400000836410090
:1009300000000077000000004136080000020102BC
:100940000402003C2623263C00000000000000407A
:100950004040F0F8F8FF38FFF8F83FF8F8FF38FFAC
:10096000F8F8F040404000000000000080C0C0C027
:10097000800000C0C08000000080C0C000C0C00077
:100980000080C0C00000000000C0C0C0C0C000C0E7
:10099000C000000000000000000000000000000097
:1009A0000000000000000000000000000000000047
:1009B0000000000000000000000000000000000037
:1009C0000000000000000000C0F0F8FC3E1E060120
:1009D0000000007F4141417F007F4141417F000095
:1009E00080C0E07E5B4F5BFEC00000C000DCD7DE55
:1009F000DEDED7DC00C000000000000000000000C8
:100A0000000000000000000000000000000000499D
:100A10004949FFFFFFFFE0DFBFBF00BFBFDFE0FFCF
:100A2000FFFFFF49494900000000001F3F6060E0F0
:100A3000BF1F007F7F071E381E077F7F007F7F0E4E
:100A40001F3B716000000000007F7F0C0C0C007EDB
:100A50007E007F7E0303007F7E03037E7E03037F91
:100A60007E000F3E703C063C703E0F00327B4949D1
:100A70003F7E007F7E0303001E3F69696F260000F2
:100A80000000000000000000030F1F3F3C78706072
:100A90000000007F4141417F007F4141417F0030A4
:100AA0007B7F7830202030787F3B0003000F7F0F62
:100AB0000F0F7F0F00030000000000000000000087
:100AC0000000000000000000000000000000000125
:100AD0000101070F0F7F0F7F0F0F7E0F0F7F0F7F1B
:100AE0000F0F0701010100000000000000000000DE
:100AF00001010000000000000000000000000000F4
:100B000000000000000000000000000000000000E5
:100B100000000000000000000000000000000000D5
:100B200000000000000000000000000000000000C5
:100B300000000000000000000000000000000000B5
:100B400000000000000000000000000000000000A5
:100B50000000000000000000000000000000000095
:100B60000000000000000000000000000000000085
:100B70000000000000000000000000000000000075
:100B80000000000000000000000011241FBECFEF95
:100B9000DAE0DEBFCDBF14E0A0E0B1E0E6ECF6E6BF
:100BA00002C005900D92A63AB107D9F729E0A6EA4E
:100BB000B4E001C01D92AE36B207E1F70E949A2858
:100BC0000C940A330C940000B0E0A0E0EAEEF5E0EB
:100BD0000C94DF312091AB013091AC01281739071B
:100BE00021F4209163072032A9F19093AC01809306
:100BF000AB0120E2209363076C01F12CE12C1092F1
:100C0000620702E617E0D0E0C0E08AE0882E912C6F
:100C1000A12CB12CC701B601A50194010E9430326C
:100C2000605D603311F4209731F0C114D104E10408
:100C3000F10409F460E2F80162938F01C701B60183
:100C4000A50194010E94303269017A012196C530D4
:100C5000D10501F78DE597E0CDB7DEB7ECE00C9458
:100C6000FB3190915C07899FC0011124811522E01E
:100C7000920714F090E080E08A59984F90936D09A4
:100C800080936C09089590915407937071F080934C
:100C9000550760935607493708F048E740935707D0
:100CA0008091530781608093530708959091540772
:100CB000937061F081110BC094609093540710926F
:100CC000AA01809153078160809353070895833070
:100CD00010F09860F2CF880F880F982BEECF482F36
:100CE00020914F079091160757E0291302C080E02A
:100CF000089530E0529FF001539FF00D1124E95EFA
:100D0000F84F8181681306C08081481303C0858134
:100D10008111EECF2F5F3F4F2770E7CFE8EDF0E076
:100D200080818E7F80831092E2001092DA00109210
:100D3000E100A0EEB0E08C9181608C9380818F7790
:100D4000808319BCA7EDB0E08C918E7F8C9380815D
:100D50008F7E80831092F70608952091E4003091F1
:100D6000E50095E6A9012091EC00822F817020FF1B
:100D700006C08091E80080FF06C080E008952091C1
:100D8000E80022FD1AC080910C07882389F0853085
:100D900089F08091EB0085FD0FC02091E400309137
:100DA000E50042175307F9F29150E1F684E0089507
:100DB00082E0089583E0089581E0089580910E0710
:100DC00087FF13C08091E80082FF06C08091E80091
:100DD0008B778093E80004C080910C078111F2CFDB
:100DE000089580910C078823D9F38091E80080FF53
:100DF000F8CF8091E8008E77ECCF982F9093E900A0
:100E0000242F762F50E0891731F07091EC0020915B
:100E1000ED005091F00021FD07C09F5F973071F702
:100E20008093E90081E008953091EB003E7F30939C
:100E3000EB003091ED003D7F3093ED003091EB0001
:100E400031603093EB007093EC002093ED005093F1
:100E5000F0002091EE0027FDE0CF80E00895B0E0A3
:100E6000A0E0E5E3F7E00C94E331C8EDD0E0888141
:100E70008F7E8883E7EDF0E080818160808384E06D
:100E800082BF81E08093F70688818E7F888302EE9F
:100E900010E0F80110821092DA0081EEC82ED12CF9
:100EA000F601108288818F778883888180688883A3
:100EB00088818F7D888319BC10920C0710920D07D2
:100EC000109201071092000790EEE92EF12CF70125
:100ED00080818B7F808388818160888342E060E0AD
:100EE00080E00E94FD06F60180818E7F8083F801FC
:100EF000808181608083808188608083F701808128
:100F00008E7F8083888180618883CDB7DEB7E8E0FB
:100F10000C94FF31FC0180911407909115078617FE
:100F20009707A0F06115710529F49091E8009E776C
:100F30009093E80090E06115710551F4911108C09B
:100F40008091E80082FF34C080E00895BC01F2CFB8
:100F500080910C078823C1F18530C1F18091E800B0
:100F600083FD30C08091E80082FDEACF8091E800E7
:100F700080FFE1CF8091F3002091F200382F6115BE
:100F8000710519F02830310558F091E0283031050D
:100F900009F090E02091E8002E772093E800CBCF75
:100FA00081918093F100615071092F5F3F4FE7CF2E
:100FB00080910C07882341F0853041F08091E80052
:100FC00083FFBECF81E0089582E0089583E0089515
:100FD000089587E797E7909301088093000888E1D8
:100FE0009AE00FB6F894A895809360000FBE909396
:100FF0006000FFCF2FB7F8946091F3067091F4066C
:101000008091F5069091F6062FBF08958091A70173
:1010100008959C01FC0132969FEF80E041914617B4
:1010200051F09F3F19F4411101C0982F8F5F863016
:10103000A9F79F3F09F40895290F311D97FD3A95AF
:10104000F90162830895A3E0B0E0E9E2F8E00C94CE
:10105000E9312091E8063091E90628173907A1F017
:101060009093E9068093E806E091E606F091E706A2
:10107000309751F024E029839B838A830084F18593
:10108000E02DCE01019609952396E2E00C940532FD
:10109000A3E0B0E0EEE4F8E00C94E9312091E4063E
:1010A0003091E50628173907A1F09093E506809363
:1010B000E406E091E606F091E706309751F023E070
:1010C00029839B838A830084F185E02DCE010196DC
:1010D00009952396E2E00C9405328091E20688237C
:1010E00059F0E091E606F091E706309729F001907B
:1010F000F081E02D0995089580E008958091D7064C
:1011000080FD16C081FD16C082FD16C08091D606F6
:101110008823A1F0883280F428E0829FC001112446
:1011200068E270E00E941C32862F672B39F0089528
:1011300082E0089584E0089588E0089581E00895AC
:101140008091D70680FD14C081FD14C082FD16C0B9
:101150008091D506882381F08E3180F420E5829F2E
:10116000C00111246EE170E00E941C32862F0895A8
:1011700084E1089588E2089588E0089580E508955F
:10118000282F35EB2303C001112497FF04C080589A
:101190009109892F089580589F4FFBCFFC01680F5C
:1011A000791F8FEF91E32191822728E030E087FFBC
:1011B00009C0880F892721503109C9F7E617F707B9
:1011C00091F70895880FF7CFFC01EE0FFF1FE80F8E
:1011D000F91FE950FA4F6183408322830895539A9F
:1011E000089525EF611124EF8FB190E02F7002C0B8
:1011F000959587952A95E2F78170089525EF6111FD
:1012000024EF30B32F7081E090E001C0880F2A9561
:10121000EAF7982F9095932390BB91B3892B81BBCC
:1012200008959091F105E92FF0E04091F2059F01BA
:101230002F5F3F4F2370332742171306A9F0ED505D
:10124000FA4F282F2F7780818078822B60FB87F9D7
:1012500080839F5F93709093F1058091EF058F5F7E
:101260008093EF0581E0089580E00895CF93DF93A8
:1012700020916C0930916D0926563740A901460F1F
:10128000571F4130524020F060E072E0621B730B48
:101290004091640750916507FC01C901620F731FFB
:1012A000C1E0D0E08617970738F050936507409368
:1012B0006407DF91CF9108952491DC01AA59B84FBA
:1012C0003C91321781F02C939C01A5E0369527952F
:1012D000AA95E1F7DE0102C0AA0FBB1F2A95E2F72B
:1012E0009D014A2B532B01963196DCCF20916C093E
:1012F00030916D092056374040915C07642F70E0B3
:10130000C9010E94C531481B463010F4240F311D1D
:10131000211582E0380710F030E020E02A59384FDC
:1013200030936D0920936C090895E4E5F7E024817A
:1013300030E1231B08F420E024838091530781606F
:10134000809353070895E4E5F7E0248130E1230F0B
:1013500008F42FEF24838091530781608093530713
:101360000895E4E5F7E0438120E1421B08F440E002
:101370008181628190E00E9443060895E4E5F7E0F0
:10138000438120E1420F08F44FEF8181628190E0B8
:101390000E9443060895E4E5F7E0628120E1621BC4
:1013A00008F460E08181438190E00E944306089543
:1013B000E4E5F7E0628120E1620F08F46FEF8181DC
:1013C000438190E00E9443060895E4E5F7E08181BF
:1013D000438162818850990B0E9443060895E4E599
:1013E000F7E0818190E04381628108960E94430684
:1013F00008958091540786958695815009F482E07E
:101400000E945606089580915407869586958F5FB1
:10141000833008F081E00E9456060895E4E5F7E085
:10142000808191E0892780831092AA0180915307DF
:1014300081608093530708959FE0899F802D112438
:10144000980F9B3408F09AE42091E306222321F0C0
:10145000963228F095E20895853208F485E20895E1
:1014600080935E0180915407837080935D010E9498
:101470008B1183E08093AA0108953091E306311126
:1014800004C0853291050CF085970E94E408089508
:10149000FF920F931F93CF93DF93182F062FF42EF5
:1014A000D0E0C0E02F2D402F612FCE010E943D0AD9
:1014B0002196CA34D105B1F7CDB7DEB7E5E00C947B
:1014C0000232B0E0A0E0E7E6FAE00C94E3319B01E1
:1014D000E82FF0E0ED55FC4F311109C0E4918E2F5B
:1014E0007E2F6E2FCDB7DEB7E8E00C94FF31E32EF0
:1014F000F12CE491FE2F0E2F10E046E0649FC00116
:101500001124CFEFD0E0BE010E94C531AB01822F84
:1015100090E0880F991F25E5249FB001259F700D4D
:101520001124861B970B982F990F980FBE016E19E7
:101530007F09609FD001619FB00D709FB00D112495
:101540008B2F399F90011124232F3327BE01621B5B
:10155000730B609F9001619F300D709F300D1124BF
:101560006E01C91AD108CE9CB001CF9C700DDE9CD3
:10157000700D1124672F7727C61BD70BC09F7001F2
:10158000C19FF00CD09FF00C11247F2D42305105EB
:10159000A1F050F44115510509F4A3CF4130510594
:1015A00081F07B2F832F9DCF4430510569F080F06F
:1015B0004630510509F495CFF4CFEB2F8F2D7F2FB7
:1015C00090CF7E2FE32F8DCFEF2D7B2F8F2F89CFC5
:1015D000732FEB2FFBCFB0E0A0E0E1EFFAE00C942B
:1015E000E431182F80915E01811324C0909154073B
:1015F000937020915D0130E081E09217130609F4A9
:1016000080E0817080936101809159079091600121
:10161000981739F08093600140E060E080E00E941C
:10162000480A113099F0112339F0123009F452C0F0
:1016300080E028C081E0E5CF80916101882311F12D
:1016400040E060E080E00E94480AF2CF80915F01B4
:101650000E941C0AC82F092F6091550770915607E8
:10166000809157070E94610AF62EE72ED82ED0E00F
:10167000C01700F18091E306882309F466C081E079
:101680000532B0F690915F019F5F90935F018111E9
:101690000CC082E08093AA0180916101811105C094
:1016A000111103C083E08093AA01CDB7DEB7E7E054
:1016B0000C940032FE01ED5AFB4F80819091600145
:1016C000892331F02D2D4E2D6F2DCE010E943D0A24
:1016D0002196CECF80915F010E941C0A092F209194
:1016E00058072695269531E0230F08F42FEF6091D7
:1016F000B8057091B90550E040E0629F412D729F9E
:10170000400D511D1124F42EC82FD0E0C01708F051
:10171000B1CFFE01ED5AFB4F80819091600189238A
:1017200091F070915607FE01EE0FFF1FED57FC4F31
:1017300064AD6F19809157070E94610A472F282FC7
:10174000CE010E943D0A2196E1CF81E00A3408F4DF
:1017500099CF6ECF80E0089581E08093A50508952C
:10176000F894E82FE295EF70F0E031A1282F2F7068
:1017700081E090E001C0880F2A95EAF7982F9095B4
:10178000932391A392A1892B82A3789408950F9318
:101790001F938091E206882329F00E94FA071F9187
:1017A0000F9108950E94FA070091370510913805AE
:1017B0002091390530913A05600F711F821F931FE8
:1017C000EECF9091490592FF10C041E0282F24717F
:1017D000243009F040E031E0282F2871283009F04A
:1017E00030E0431711F02CE0822793FF10C041E056
:1017F000282F2471243109F040E031E0282F28718E
:10180000283109F030E0431711F02CE082273091A5
:101810004A0530FF10C051E0282F2171213009F016
:1018200050E041E0282F2871283009F040E054179B
:1018300011F029E0822731FF10C041E0282F2171EB
:10184000213109F040E031E0282F2871283109F0DA
:1018500030E0431711F029E0822794FD877E089538
:1018600082389105B9F1B0F48133910509F47DC056
:1018700048F48932910509F46DC08A32910509F462
:101880007BC008958533910509F45FC089339105C4
:1018900009F10895833E9105D9F138F4803E910510
:1018A00029F1823E910579F10895863E9105D9F19D
:1018B000873E910509F43EC0843E910541F5209193
:1018C0004A0521FF24C08091490584FD19C087EE97
:1018D00090E0089520914905237009F05AC02091A5
:1018E0004A0523FF14C089E290E00895209149053C
:1018F00020FD38C030914A0530FF09C024FF43C0A5
:1019000090E080E008952091490522FDF7CF0895E9
:101910002091490522FD3AC030914A0530FD39C079
:1019200024FFF5CFEDCF2091490523FFF0CF24FD13
:10193000E7CFCDCF2091490523FD2EC030914A0538
:1019400031FFEECF84EE90E008952091490525FF08
:10195000DECFC9CF2091490525FD21C020914A0540
:1019600023FFD5CF89E390E0D2CF2091490526FF10
:10197000CECF8AE290E008952091490526FFC7CF97
:1019800081E390E0089583EE90E0089582EE90E088
:10199000089580EE90E0089586EE90E0089585E346
:1019A00090E00895972F7A30B8F46630A8F482302A
:1019B000B0F470E026E0929F600D711D1124FB01D0
:1019C0009CE3899FE00DF11D1124EE0FFF1FED54E4
:1019D000FF4F85919491089580E090E0089581E013
:1019E000FCCF1F93CF93DF930E94300CEC01C11505
:1019F00080E5D807F0F5C11580E4D80708F09CC051
:101A0000C03ED10520F5CD3CD10508F082C0C83AD2
:101A1000D10578F4C53AD10508F073C0C130D105BD
:101A200019F1209709F1C430D105F0F4D0E0C0E0FD
:101A30001BC0C33CD105D0F7C85AD0E0CC0FDD1F86
:101A4000C05EDC4F0990D881C02DD4640DC0C11593
:101A500080E2D80708F0D1C0C11581E0D80708F0AE
:101A60005AC0C83ED10510F7CE01DF91CF911F912A
:101A70000895C03682E5D80718F5C03482E5D80746
:101A800008F06BC0C03282E5D80708F05FC0C1150E
:101A900082E5D80708F497C02C2F2695269580E27A
:101AA000289F900111248C2F8370C1E0D0E002C0E8
:101AB000CC0FDD1F8A95E2F7C22BD32BDD68D4CF84
:101AC000C03A82E5D80760F4C03882E5D80708F448
:101AD00059C0CF71D0E0DC2FCC27C46FD06AC4CFFF
:101AE000C03C82E5D80708F462C0C03E82E5D80752
:101AF00008F09CCFDC2FCC27CC27DF71C06FD06AD9
:101B0000B3CFC55AD0E0C35EDC4FC881D0E0D0640B
:101B1000ABCFD065A9CF8D2F0E94E10B182FCE013E
:101B200099270E94300CC12FD0E0DC2FCC27CC2786
:101B3000DF71C82BD92B98CFCE0199270E94300C8A
:101B4000CC27DF70C82BD92BD06A8ECFCF71D0E0D5
:101B5000DC2FCC27C16FD06A87CF2C2F26952695F6
:101B6000277080E2289F900111248C2F8370C1E0A0
:101B7000D0E002C0CC0FDD1F8A95E2F7C22BD32B39
:101B8000DC6872CF2C2F26952695277080E2289F3F
:101B9000900111248C2F8370C1E0D0E002C0CC0FE3
:101BA000DD1F8A95E2F7C22BD32BDA685DCF8C2F2D
:101BB0008F710E94E10BC82FD0E0DC2FCC27CC27FF
:101BC000DF71D06251CF8C2F8F710E94E10B55E0F5
:101BD000D695C7955A95E1F7CF70D0E0DC2FCC278A
:101BE000282F30E084FF05C044E0220F331F4A95C0
:101BF000E1F7C22BD32BD06937CF8D2F8F710E9485
:101C0000E10B182FCE0199270E94300CC12FD0E094
:101C1000DC2FCC27CC27DF71C82BD92BD2CF8095D6
:101C20009091E40498239093E404089580914F07E1
:101C300090911607981301C008958F5F8770FACFAF
:101C4000B0E0A0E0E6E2FEE00C94E2317C0100911D
:101C50004B0510914C058091470590914805082B44
:101C6000192BCFE0D0E0CC24C394D12CBC2EC601DC
:101C70000C2E02C0880F991F0A94E2F7802391234B
:101C8000892B49F4219790F7B12C8B2DCDB7DEB776
:101C9000E9E00C94FE31B7018C2F0E94D20C0E9417
:101CA000F10C019779F3F1CFCF93DF93EC010E9410
:101CB000200EBE010E94D20C0E94F10CDF91CF9148
:101CC00008959A3078F5863068F5E82FF0E086E0E0
:101CD000989FE00DF11D11249E2F977083E0F695DB
:101CE000E7958A95E1F7EE0FFF1FEE0FFF1FEE5409
:101CF000FB4F50E040E080E0219130E0092E02C02F
:101D0000369527950A94E2F721703327042E01C0F7
:101D1000220F0A94EAF7822B4F5F5F4F4430510540
:101D200059F7089580E008959A3098F5863088F53F
:101D3000E82FF0E086E0989FE00DF11D11248E2F32
:101D4000877041E001C0440F8A95EAF783E0F69579
:101D5000E7958A95E1F7EE0FFF1FEE0FFF1FEE5498
:101D6000FB4F30E020E070E05191DF011197CB0193
:101D7000022E02C0969587950A94E2F781708195AC
:101D80008527842385278C932F5F3F4F243031058F
:101D900059F7089590934805809347050895FC01ED
:101DA00024812223C1F0808191810E94540E92955A
:101DB0009F70963091F058F4925F9F70923058F473
:101DC000803F19F030F4883E30F481E008959A5F46
:101DD000F4CF843FD1F380E00895883EB0F3813F93
:101DE000D1F7F3CF292F332740E02115310511F02A
:101DF000C90148E09C0164E0369527956A95E1F7B2
:101E00002115310511F04C5FC9019C0136952795CC
:101E1000369527952115310511F04E5FC90196952C
:101E20008795892B09F04F5F842F0895A6E0B0E0D5
:101E3000ECE1FFE00C94E83126E0FC01DE011196B4
:101E400001900D922A95E1F7FC01258189819A8103
:101E5000222399F0662389F00E94200E182F682F04
:101E600089819A810E94940E69817A81812F0E94D2
:101E7000D20C2696E3E00C9404320E94610E182FD7
:101E8000F3CFCF93DF93D82FC0E067E070E08CEA08
:101E900090E00E9436090E947609CF5FDC13F5CFEF
:101EA000DF91CF910895E6E6F7E080E092E0DF0170
:101EB0009C011D9221503040E1F7F0936D09E093B1
:101EC0006C098FEF9FEF90936507809364070895E7
:101ED000CF93DF93682F81E06A3019F06D3031F4D1
:101EE00080E00E94CC0FDF91CF91089580916C0922
:101EF00090916D0926E0FC01A6E6B9E001900D92F3
:101F00002A95E1F7603EE8F126E0FC0111922A955E
:101F1000E9F7C0916C09D0916D0946E050E0BE012F
:101F200086E699E00E94A232892B41F1C656D7403D
:101F3000CE0125E0969587952A95E1F721E030E0DE
:101F4000A90102C0440F551F8A95E2F7CA014091CA
:101F5000640750916507842B952B259645E0D6950F
:101F6000C7954A95E1F702C0220F331FCA95E2F7E1
:101F7000822B932B90936507809364070E947609C8
:101F8000B2CFF6E06F9FB0011124675B794F46E056
:101F900050E00E949932BDCFCF93382FE0916C0969
:101FA000F0916D09E656F74020915C07622F70E0D2
:101FB000CF010E94C531281B822F332361F066E0D8
:101FC0000E941032C82FC15010F4CF91089580E2C2
:101FD0000E94680FF8CF9F01280F311D2115324054
:101FE00018F080E0F0E0E0E08E0F9F2F911D8A59FD
:101FF000984F90936D0980936C09E7CF2091E4048A
:102000008091DB04282B8091DA04882381F0282B2F
:1020100030E08AEA94E0FC014191CF0141113F5F39
:10202000F4E0803B9F07B9F731111092DA04209356
:10203000A80448E050E06CED74E088EA94E00E9467
:10204000A232892BA9F088E0E8EAF4E0ACEDB4E034
:1020500001900D928A95E1F7E091E606F091E7068E
:10206000309731F00280F381E02D88EA94E0099501
:102070000895882321F00E940F0E0E94FE0F0895FC
:10208000882339F09091E404982B9093E4040E9403
:10209000FE0F08950F931F93CF93DF93EC01FC0184
:1020A00001900020E9F78F0101501109C017D107F5
:1020B00028F0DF91CF911F910F91089589910E948F
:1020C000680FF4CF0E944A1081E00E94CC0F08955F
:1020D000CF93DF93EC0182E00E943106CE010E9493
:1020E000F20E482F50E070E060E048305105610585
:1020F000710568F4440F551F4D595C4FFA018081FA
:1021000091810E946210CE01DF91CF91089590E0FD
:102110000E94E405F6CF0E94681090934C058093CE
:102120004B05089521E030E002C0220F331F8A954D
:10213000E2F72095309580914B0590914C058223D4
:1021400093230E948B1008959091D9048095892340
:102150008093D904282F277069F4891759F090913A
:102160004A0592FF07C08695869586950E94921033
:102170001092D904089521E030E002C0220F331FED
:102180008A95E2F780914B0590914C05822B932B19
:102190000E948B100895809155078093C30580910C
:1021A00056078093C205809157078093C10580919F
:1021B0005407869586958093C00586E00E94310677
:1021C00084ED92E00E944A108091C30590E00E9445
:1021D000E405FC01019620812032D9F3CF010E9451
:1021E0004A1087E00E94310687ED92E00E944A1073
:1021F0008091C20590E00E94E405FC0101962081D7
:102200002032D9F3CF010E94621088E00E9431068B
:102210008AED92E00E944A108091C10590E00E94F0
:10222000E405FC01019620812032D9F3CF010E9400
:10223000621089E00E9431068DED92E00E944A1002
:102240008091C00590E00E94E405FC010196208188
:102250002032D9F3CF010E94621008950F931F938B
:10226000CF93DF938B01EA0190910C07943061F5D5
:102270008093E9008FEF9091E800815095FD06C0B2
:1022800095ED9A95F1F700008111F5CF8091E80066
:1022900085FF1AC00E94AD06811111C08091E8002F
:1022A00085FD06C08091E8008E778093E800F2CF2C
:1022B000F80181918F018093F100219779F7809146
:1022C000E8008E778093E800DF91CF911F910F9106
:1022D000089543E050E0BC0182E00E942E11089571
:1022E00046E050E0BC0182E00E942E110895CF9399
:1022F000DF93EC0148E050E0BC0181E00E942E1128
:1023000088E0FE01A8EFB6E001900D928A95E1F712
:10231000DF91CF9108953BB1377F2BB128604FB744
:10232000F89487EF95E0FC015191CF0168E02BB95B
:10233000000000C057FF3BB9550F000000C000C0AF
:1023400000C03BB900C06A9591F7F6E0853D9F0754
:1023500051F74FBF8FE594E00197F1F700C00000FF
:102360000895B0E0A0E0E7EBF1E10C94E1317C01ED
:102370005B016A018091360501E010E08A3010F4BB
:102380000AE010E0C1E0D0E0B501C701F60109950F
:10239000811104C021960C171D072CF4CDB7DEB7B0
:1023A000EAE00C94FD31CC9F9001CD9F300D300DB3
:1023B000112490E080E045E34A95F1F70000019692
:1023C00082179307C1F7E0CFAB0124E630E0BC01F0
:1023D00088E70E94792F21E0892B09F020E0822FE5
:1023E00008958091EB059091EE05911103C091E065
:1023F00089270895882369F062E070E087EC94E013
:102400000E94E411811103C08091EB0508951092A0
:10241000EB058091EB05EBCFCF93C091EB0580915D
:10242000EE058823D1F00E94FA07605A75418F4F5C
:102430009F4F6093E7057093E8058093E9059093BB
:10244000EA05C11108C062E070E085EC94E00E94EA
:10245000E411811105C0C091EB058C2FCF91089537
:1024600081E08093EB05F7CFCF939091E206911135
:1024700083E08093E50580FD11C080E880935C07D0
:102480000E94012F6BE070E08AEB94E00E94E4115F
:10249000811106C0C0E08C2FCF91089580E2EECF6D
:1024A0008091E50565E070E081FD27C085EB94E053
:1024B0000E94E411882371F36DE070E083EA94E0F8
:1024C0000E94E411C82F882329F30E94FA07605A5A
:1024D00075418F4F9F4F6093E7057093E805809398
:1024E000E9059093EA050E94530F81E08093EE0581
:1024F0008093EB051092E605CECF80EB94E0D8CF29
:10250000CF92DF92EF92FF92CF930E94C70B60931E
:10251000B4057093B5058093B6059093B7052091E7
:10252000BC05C0E0211108C020915407C22FC37020
:1025300019F0C22FC695C6952091AA012130D1F07D
:10254000222351F0223009F1233019F1CF91FF906D
:10255000EF90DF90CF90089510925F016093B805DF
:102560007093B9058093BA059093BB0581E0809381
:10257000AA01ECCF8C2F0E94EB0ACC2339F3809177
:102580005F0181500E941C0AE1CF8C2F0E94300A0B
:10259000DDCF80915307882351F048E050E067E198
:1025A00070E084E597E00E94D63210925307C09005
:1025B000B805D090B905E090BA05F090BB058091C0
:1025C000E206882379F00E94FA076C197D098E09CA
:1025D0009F09603171058105910508F4B7CF10920C
:1025E000AA01B4CF0E94C70BF0CF90914A0592FB8D
:1025F000222720F9281779F080FB92F990934A0559
:102600006091490570914A0584E090E00E9404338E
:1026100082E00E94A4100895CF92DF92EF92FF9281
:102620001F93CF93DF9300D000D0CDB7DEB7C0901B
:102630002605D0902705E0902805F09029050E94F6
:10264000FA076C197D098E099F0911E0643671053E
:102650008105910570F10E94C70B6E5F7F4F8F4F10
:102660009F4F69837A838B839C8380913101909102
:1026700032018D5F9A4F4091300150E04530510555
:1026800010F044E050E0BE016F5F7F4F0E94AF3218
:1026900086E090E00E944F31182F882351F00E946D
:1026A000FA07609326057093270580932805909379
:1026B0002905812F0F900F900F900F90DF91CF91F0
:1026C0001F91FF90EF90DF90CF900895B0E0A0E0D1
:1026D000ECE6F3E10C94DF31C82F7B01D42F6901C4
:1026E000FB0180809180A280B3800E94FA07681964
:1026F00079098A099B09643671058105910510F4F1
:10270000DD2359F10C2E000CDD0BFE0183E0EE0FF2
:10271000FF1F8A95E1F7E050FF4F818192818D5F25
:102720009A4F408150E00417150708F4A801B6013C
:102730000E94AF32CE010E944F31C82F882339F05A
:102740000E94FA07F70160837183828393838C2F41
:10275000CDB7DEB7ECE00C94FB31C1E0F8CFA1E0DF
:10276000B0E0E5EBF3E10C94E7318091EB05898370
:102770002091250590E041E02817190609F440E072
:1027800001E010E09E012F5F3F4F62E375E089E0BA
:102790000E9466132196E4E00C940332A1E0B0E0BD
:1027A000E4EDF3E10C94E7318091BD05898341E0CC
:1027B00090912405981301C040E001E010E09E01D3
:1027C0002F5F3F4F6EE275E088E00E94661321960E
:1027D000E4E00C940332A9E0B0E0E1EFF3E10C9403
:1027E000E73188E0E4E5F7E0DE01119601900D9213
:1027F0008A95E1F78091BC05898749E050E06BE15B
:1028000075E0CE0101960E94A23241E0892B09F4C5
:1028100040E009E010E09E012F5F3F4F6AE275E063
:1028200087E00E9466132996E4E00C9403320F932C
:102830001F93CF93DF93EC0145E050E069E075E032
:102840000E94A23241E0892B09F440E005E010E04B
:102850009E016AEF74E082E00E946613DF91CF91DF
:102860001F910F910895A1E0B0E0E9E3F4E10C9429
:10287000DB31D62E4A015901682E880F7708C30133
:102880000E944F31C82E882309F46AC0C30133E087
:10289000880F991F3A95E1F7FC01E050FF4F438103
:1028A00050E04115510511F041E050E080509F4F3C
:1028B000FC01648175816D5F7A4FCE0101960E94A3
:1028C000AF32F40140805180628073800E94FA0729
:1028D00064197509860997096436710581059105A2
:1028E00038F4B701C8010E94CE0899818917C1F157
:1028F0006D2C0D2C000C7708C3010E944F31C82E9F
:10290000811106C0C12C8C2D2196E0E10C94F73189
:10291000C30123E0880F991F2A95E1F7FC01E050DD
:10292000FF4F438150E0E416F50608F4A7018050FC
:102930009F4FFC01648175816D5F7A4FC5010E94D4
:10294000AF32B701C8010E94CE0899818913DACF4E
:102950000E94FA07F4016083718382839383D3CF4B
:10296000A701B801C5010E94AF32CDCFA8E0B0E009
:10297000ECEBF4E10C94E53188E0E82EF12C0FE06B
:1029800015E09E012F5F3F4F4FEF54E064E083E07E
:102990000E943314082F882389F190910E058091AD
:1029A000FE04981759F110E09091120580911105DD
:1029B0008917F1F0E92FF0E0E95FFA4F848587FB92
:1029C000662760F99F5F93709093120590911005B0
:1029D0009F5F909310058F770E941109182F811126
:1029E000E3CF85E090E00E944F31012F082302C021
:1029F0001111F7CF80910E058093FE04802F289649
:102A0000E6E00C940132A5E0B0E0E9E0F5E10C94D9
:102A1000E3316B0185E0E82EF12C04E015E09E0126
:102A20002F5F3F4F46EF54E061E080E00E94331497
:102A3000882349F095E0FE013196A1EFB4E00190C2
:102A40000D929A95E1F795E0E1EFF4E0D60101905F
:102A50000D929A95E1F72596E8E00C94FF31789471
:102A60001F921FB61F9211248F939F93AF93BF9312
:102A70008091F3069091F406A091F506B091F606C8
:102A80000196A11DB11D8093F3069093F406A093C7
:102A9000F506B093F606BF91AF919F918F911F906D
:102AA0001FBE1F9018952FB7F8948091F306909150
:102AB000F406A091F506B091F6062FBF0895CF93C6
:102AC000DF93EC010E9453158C1B9D0BDF91CF917E
:102AD00008953091F1062091ED06321720F42091EF
:102AE000ED062093F1066093EA067093EB0680935F
:102AF000EC069093ED060E94531590930407809383
:102B0000030781E08093020708951F920F920FB68A
:102B10000F9211242F933F934F935F936F937F9363
:102B20008F939F93AF93BF93CF93EF93FF93809136
:102B3000E10082FF09C08091E20082FF05C0809120
:102B4000E1008B7F8093E1008091DA0080FF24C058
:102B50008091D80080FF20C08091DA008E7F809322
:102B6000DA008091D90080FFD3C080E189BD82E185
:102B700089BD09B400FEFDCF81E080930C078091F0
:102B8000F706811109C00E948E060E942F078091CE
:102B9000E20084608093E2008091E10080FF24C025
:102BA0008091E20080FF20C08091E2008E7F8093C0
:102BB000E2008091E20080618093E2008091D80081
:102BC00080628093D80019BC85E080930C0783E075
:102BD0008093A9016091A6017091A7018091A8013D
:102BE0009091A9010E9469158091E10084FF3AC08B
:102BF0008091E20084FF36C080E189BD82E189BD19
:102C000099B5892F817090FFFBCF9091D8009F7D5F
:102C10009093D8009091E1009F7E9093E100909175
:102C2000E2009F7E9093E2009091E2009160909389
:102C3000E20090910D07992309F470C094E09093FD
:102C40000C0790910C07943009F482E08093A9015D
:102C50006091A6017091A7018091A8019091A901AE
:102C60000E9469158091E10083FF40C08091E200DD
:102C700083FF3CC08091E100877F8093E10082E088
:102C800080930C0710920D078091E1008E7F809356
:102C9000E1008091E2008E7F8093E2008091E2006B
:102CA00080618093E20042E060E080E00E94FD06E7
:102CB0008091F00088608093F000C1E0C093A9018A
:102CC0006091A6017091A7018091A8019091A9013E
:102CD0000E946915C093A8016091A6017091A70197
:102CE0008091A8019091A9010E946915FF91EF912F
:102CF000CF91BF91AF919F918F917F916F915F9194
:102D00004F913F912F910F900FBE0F901F901895EC
:102D100019BC10920C071092F7063ECF9091E30079
:102D200097FD02C0982F8BCF93E089CF0E94531557
:102D30009C019091DE068091DF06982B21F0309364
:102D4000DB062093DA069091E0068091E106982B4D
:102D500021F03093D9062093D806E091E606F09151
:102D6000E706309749F082E08093DC060680F78121
:102D7000E02D8CED96E009950895CF931092E40430
:102D8000C6E0EAEAF4E0DF018C2F1D928A95E9F7AC
:102D900090E080E00E94480890E080E00E942308D4
:102DA0001092DB040E94FE0FECEDF6E0DF011D92B5
:102DB000CA95E9F71092D5061092D6061092D7065A
:102DC0000E949616CF910895AAE2B0E0EAEEF6E1ED
:102DD0000C94E5318EE097E02091F100FC01219305
:102DE000CF01F7E086319F07B9F780910F07833055
:102DF00009F47AC0B8F4813009F451C0823009F482
:102E0000D3C08091E80083FF5BC180910E07909151
:102E10000F079A3008F054C1E92FF0E0E45FFC4C52
:102E20000C9471328A3009F4A4C08B3009F479C053
:102E3000893039F780910E07813219F78091120796
:102E4000909113070297E8F68091E800877F8093BE
:102E5000E8008091E80082FF42C09091F3008091E9
:102E6000F200029731F48091F100813011F0863048
:102E700071F48091F1008093A7016091A601709197
:102E8000A7018091A8019091A9010E9469158091E4
:102E9000E8008B778093E8000E94DE06B2CF809135
:102EA0000E07813A09F0ADCF8091E800877F8093CB
:102EB000E8008091120790911307892B61F468E074
:102EC00088EF96E070E00E948A078091E8008B7797
:102ED0008093E80096CF60E090E080E0F3CF8091AF
:102EE0000C078111B6CF8DCF80910E07813A09F082
:102EF00088CF8091120790911307892B09F081CF19
:102F00008091E800877F8093E8008091E80080FF4F
:102F1000FCCF8091A8018093F1008091E8008E772A
:102F2000B9CF80910E07813209F06BCF80911207E3
:102F300090911307892B09F064CF8091E800877F77
:102F40008093E8000E94DE0681E0909110079111C5
:102F500001C080E08093A8016091A6017091A70153
:102F60008091A8019091A9010E9469150E94BD1647
:102F700048CF80910E07813209F043CF8091E8005D
:102F8000877F8093E8000E94DE068091110780937E
:102F9000A6016091A6017091A7018091A80190916E
:102FA000A9010E9469152DCF80910E07813A09F081
:102FB00028CF8091E800877F8093E8008091E80027
:102FC00080FFFCCF8091A601A6CF803899F082388F
:102FD00009F076C0809112078F70873008F070C0BA
:102FE0008093E9008091EB0085FB882780F910929F
:102FF000E90006C08091000790910107911182605D
:103000009091E800977F9093E8008093F1001092F0
:10301000F1008091E8008E773DC2882309F42AC22E
:10302000823009F04DC08091100781112EC280912D
:1030300012078F702FEF280F263008F041C08093C1
:10304000E9002091EB0020FF20C2933031F4809101
:10305000EB0080628093EB0018C29091EB009061CE
:103060009093EB0021E030E001C0220F8A95EAF74F
:103070002093EA001092EA008091EB008860EACF8A
:1030800081111EC0109110071F778091E300807896
:10309000812B8093E3008091E800877F8093E80094
:1030A0000E94DE068091E80080FFFCCF8091E30063
:1030B00080688093E30082E0111183E080930C0725
:1030C0008091E80083FF0AC08091E800877F8093A9
:1030D000E8008091EB0080628093EB00AA96E6E026
:1030E0000C9401328058823058F7809110079091EB
:1030F00011078C3D23E09207A1F583E08A838AE2E1
:1031000089834FB7F894DE01139620E03EE051E248
:10311000E32FF0E050935700E49120FF03C0E295C5
:10312000EF703F5FEF708E2F90E0EA30C0F0C796EF
:103130008D939D932F5F243159F74FBF8091E80005
:10314000877F8093E8006AE270E0CE0101960E94DA
:103150008A078091E8008B778093E800B1CFC09612
:10316000E7CF4091120750911307292F33272330BF
:10317000310539F178F42130310509F4EDC0223000
:10318000310509F09DCF0BE310E038ECE32E35E07C
:10319000F32EAFC02132310509F4D0C022323105FF
:1031A00009F08ECF4115510509F4E4C041305105B5
:1031B00009F086CF0BE710E059E0E52E55E0F52E3B
:1031C00098C099278130910509F44EC0009709F401
:1031D00041C0029709F452C010E000E0F12CE12C4C
:1031E0004091140750911507809106078F5F8093D7
:1031F000060750930B0740930A074230510509F028
:1032000047C0909107079F5F90930707833008F4AA
:1032100063C020910907223030F090910807911186
:103220008BC08217A9F090910707853008F443C03E
:103230004F3F510509F048C0222309F447C083E0FD
:10324000923008F03EC080910807982B09F044C0E6
:1032500081E037C0E5E4F6E0E4910E2F10E0E5E40C
:10326000EE2EE6E0FE2EBCCFEDE2F6E0E4910E2F6E
:1032700010E07DE2E72E76E0F72EB2CFE5E1F6E052
:10328000E4910E2F10E065E1E62E66E0F62EA8CF61
:103290004430510531F4909108079F5F90930807DF
:1032A000B5CF4F3F510509F0B1CF909109079F5F0E
:1032B00090930907ABCF843039F42111C4CF9230F9
:1032C00029F48093050708C02111BDCF933021F464
:1032D000809108078130A9F30E9453159093040749
:1032E0008093030781E0809302070115110509F41B
:1032F000E7CE8091E800877F8093E80080911407F3
:10330000909115070817190708F4C80140E00097C5
:10331000C1F5411136C08091E80082FD1ACF80913D
:103320000C07882309F415CF853009F412CF80915A
:10333000E80083FFF0CF0DCF82E0C3CF41155105E8
:1033400091F04130510509F0BBCE09E010E093EF58
:10335000E92E95E0F92ECDCF02E110E043E0E42E16
:1033600046E0F42EC6CF09E010E02AEDE22E25E07B
:10337000F22EBFCF04E410E084E8E82E85E0F82EBA
:10338000B8CF20910C07222309F4E3CE253009F4AD
:10339000E0CE2091E80023FDDCCE2091E80022FD64
:1033A000BACF2091E80020FFB2CF3091F3002091F6
:1033B000F200009719F02830310558F041E028302C
:1033C000310509F040E02091E8002E772093E800D5
:1033D0009ECFF70144914093F100FFEFEF1AFF0AEF
:1033E00001972F5F3F4FE5CF803809F069CE80917C
:1033F000E800877F8093E80080910D078093F100BB
:1034000008CE81115DCE10911007123008F058CE11
:103410008091E800877F8093E80010930D070E9459
:10342000DE06112311F084E005C08091E30087FDE2
:10343000FACF81E080930C0742E061EC81E00E94CA
:10344000FD0642E261EC82E00E94FD0680910C07DD
:10345000843071F081E08093A9016091A6017091A0
:10346000A7018091A8019091A9010E94691528CE19
:1034700082E0F1CF80911007813009F021CE81E008
:10348000933009F080E0809301071092E900809169
:10349000E800877F8093E8000E94DE0611CE1F922D
:1034A0000F920FB60F9211242F933F934F935F9378
:1034B0006F937F938F939F93AF93BF93CF93DF933C
:1034C000EF93FF93D091E900DF708091EC00C82F5B
:1034D000C17080FDC0E81092E9008091F000877F04
:1034E0008093F00078940E94E4161092E900809195
:1034F000F00088608093F000CD2BCF70C093E9007E
:10350000FF91EF91DF91CF91BF91AF919F918F91FB
:103510007F916F915F914F913F912F910F900FBECF
:103520000F901F9018950E94BD162FEF84E39CE02A
:10353000215080409040E1F700C0000088E19AE00F
:103540000FB6F894A895809360000FBE909360002A
:10355000FFCF662309F45DC08D3C41F40E94A008B2
:1035600081958093DF060E94961608958E3C19F48B
:103570000E94A008F6CF8F3C31F40E94A0088195EC
:103580008093DE06F0CF803D19F40E94A008F8CFAA
:10359000893D29F40E947E088093E006E4CF8A3DAD
:1035A00021F40E947E088195F7CF8B3D31F40E9473
:1035B0007E0881958093E106D6CF8C3D19F40E9458
:1035C0007E08F8CF9FE2980F983070F4815D990BD8
:1035D00021E030E001C0220F8A95EAF78091DD06F4
:1035E000822B8093DD06BFCF8D3D31F48091D706CD
:1035F00081608093D706B7CF8E3D21F48091D706A6
:103600008260F7CF8F3D09F0AECF8091D7068460FE
:10361000F0CF4091DE068D3C59F48091DF0687FFA4
:103620000DC01092DF0641110BC01092D50608C0E4
:103630008E3C81F48091DF0618169CF3442381F0C0
:103640008091E0069091E106892B09F08CCF1092D1
:10365000D60689CF8F3C49F447FFF0CF1092DE06A3
:103660008091DF068111ECCFE0CF803D19F4141674
:10367000ACF3E4CF9091E006893D29F41916F4F6F5
:103680001092E006DBCF8A3D19F497FFD7CFF8CF31
:103690009091E1068B3D29F497FFD0CF1092E1067F
:1036A000CDCF8C3D19F41916CCF3C8CF9FE2980FFB
:1036B000983090F4815D990B21E030E0B90102C0AF
:1036C000660F771F8A95E2F7CB0180959091DD0612
:1036D00089238093DD06B2CF8D3D31F48091D706EA
:1036E0008E7F8093D706AACF8E3D21F48091D70696
:1036F0008D7FF7CF8F3D09F0A1CF8091D7068B7FCB
:10370000F0CF8823D1F19CEF980F913A78F4EAEA50
:10371000F4E09191891303C0DF0111971C9294E0AA
:10372000E03BF907B1F70E94FE0F089590E2980F71
:10373000983050F4877091E001C0990F8A95EAF7AC
:10374000892F0E940F0EEFCF9BE5980F933028F43E
:1037500090E080E00E944808089598E5980F9B311A
:1037600028F490E080E00E942308089593E3980FE6
:10377000933118F460E00E94A91A0895CF93C82FDE
:103780008823B1F08CEF8C0F813A00F5EAEAF4E07F
:1037900080EB94E0DF012D91C21761F08A179B073F
:1037A000D1F76C2F88EA94E00E9409080E94FE0F6E
:1037B000CF9108952191C21303C0DF0111971C928C
:1037C0008E179F07B9F70E94FE0FEBCF80E28C0F98
:1037D000883068F4C77021E030E001C0220FCA953C
:1037E000EAF78091E404822B8093E404DFCFEBE5D9
:1037F000EC0FE33040F4F0E0E35EFC4F808190E0BA
:103800000E944808D5CFE8E5EC0FEB3150F4F0E02A
:10381000EE0FFF1FE05EFC4F808191810E94230824
:10382000C7CF83E38C0F833118F661E08C2F0E94A1
:10383000A91ABECFEF92FF920F931F93CF93DF93FE
:10384000C62FD42F022FFC0185818823A9F0609315
:1038500052070E9453159093510780935007C770E9
:1038600081E001C0880FCA95EAF70E944010CDB7E9
:10387000DEB7E6E00C94013280915207681337C03E
:10388000E0905007F09051070E9453158E199F0940
:10389000883C910560F510E21D0FCD17B9F080E26C
:1038A0008C0F883040F4C77081E001C0880FCA9542
:1038B000EAF70E943910183048F481E09D2F977084
:1038C00001C0880F9A95EAF70E944010802F0E944D
:1038D000BE1B802F0E94811B183048F6D77081E0F4
:1038E00001C0880FDA95EAF70E943910C0CFC7707F
:1038F00081E001C0880FCA95EAF7F6CF80E0909189
:10390000F2052091F105291749F1E92FF0E0ED507A
:10391000FA4F20819F5F93709093F2058091F0059C
:103920008F5F8093F00527FD0BC08AEA0E94BE1BC3
:103930008FE39CE90197F1F700C000008AEA0AC012
:1039400089EA0E94BE1B8FE39CE90197F1F700C052
:10395000000089EA0E94811B81E0D1CF0895B0E088
:10396000A0E0E5EBFCE10C94E1317C01FC018481F9
:10397000882309F453C061E0C7010E94160FEC01CF
:10398000F70125812223F9F09A9581159F4448F586
:10399000CE019927AC01445051094432510518F029
:1039A0008B970E9780F4E0916805F0E0EE0FFF1F13
:1039B000E359FA4F808191818F3F3FE7930719F0D8
:1039C000019691838083D0939C01C0939B01FE015B
:1039D000E851FC47E730F105E8F5EA5EFC4C0C9451
:1039E000713290E080E0CF3FD10509F098F6CE012A
:1039F000D1CF26E241EE61EEC7010E941A1C8091F0
:103A0000D904877059F0F7018581882339F08091B6
:103A10004A0582FF03C082E00E94A410CDB7DEB742
:103A2000EAE00C94FD3127E245EE65EEE5CF26E2B3
:103A300041EE60EEE1CF27E245EE64EEDDCF26E217
:103A400041EE62EED9CF27E245EE66EED5CF28E211
:103A500041E0EBCF222309F4ECC310925207CE01D0
:103A60009057839708F0CFC384E090E00E94D03253
:103A700090934A0580934905FE01E150F047E232F8
:103A8000F10520F4E35EFC4C0C9471328091490501
:103A900081608093490595C080914A058860809334
:103AA0004A058FC0809149058260F3CF8091490516
:103AB0008460EFCF809149058860EBCF80914A0503
:103AC0008160EDCF80914A058260E9CF8091490500
:103AD0008061DFCF809149058062DBCF809149050D
:103AE0008064D7CF0E94BD16809149058068D1CFF0
:103AF000809149058C60CDCF80914A058360CFCFFE
:103B0000809149058E7FC5CF80914A05877FC7CFB9
:103B1000809149058D7FBDCF809149058B7FB9CFBD
:103B200080914905877FB5CF80914A058E7FB7CFB9
:103B300080914A058D7FB3CF809149058F7EA9CFB3
:103B4000809149058F7DA5CF809149058F7BA1CFBD
:103B50000E94BD16809149058F779BCF80914905C2
:103B6000837F97CF80914A058C7F99CF80914905BB
:103B700082FB992790F921E0922790FB82F990FB34
:103B800083F987CF80914A05982F909591708E7F09
:103B9000892B90FB81F983CF90914905892F8F7BE9
:103BA00096FF806476CF0E94BD1690914905892FBB
:103BB00097FB87F980586DCF61E08EE090E00E941E
:103BC000E6326091490570914A0584E090E00E94D8
:103BD00004330E94BD1613CF60E0EFCF90914905EA
:103BE000892F8F7E94FF806154CF90914905892F52
:103BF0008E7F90FF81604DCF90914A05892F877FFE
:103C000093FF88604CCF85E31DC30E940E0AF7CE58
:103C10008823A9F10E94F909F2CE8823A9F10E9414
:103C2000E509EDCE8823A9F10E94CB09E8CE8823CF
:103C3000A9F10E94B109E3CE8823A9F10E94950958
:103C4000DECE80915407837011F41092AA01809106
:103C500054078C7F81608093540780915307816063
:103C600080935307CCCE80915407837011F010924B
:103C7000AA01809154078C7FEECF882359F20E94CD
:103C8000030ABDCE882359F20E94EF09B8CE8823DB
:103C900059F20E94D809B3CE882359F20E94BE0976
:103CA000AECE882359F20E94A309A9CECE01805E30
:103CB00092458097A8F4211115C0CF7181E090E062
:103CC000FC0102C0EE0FFF1FCA95E2F7EF016E2F55
:103CD00083E090E00E94E632CE010E94CA0E8FCEB1
:103CE000222381F0C330FCE7DF0709F477C008F036
:103CF0005AC0C1153CE7D30709F463C0C130DC47A3
:103D000009F472C0F7018581C081D181882309F44B
:103D100079C0CE010E94200E182F682FCE010E947C
:103D2000940EBE01812F0E94D20C0E94F10CD82F5C
:103D3000C92FA82EF701C580B680B2949FE0B922A2
:103D40008091D904877001F10C2DCC20F1F08C2FDB
:103D5000807F803469F080E28D0F8830A8F08C2F4E
:103D6000807E803229F4F1E0FD1770F4BB2061F011
:103D700080914A0582FF08C082E00E94A4108091D1
:103D8000D904877001E009F000E0DC2ED2948FE0C6
:103D9000D8222BE02D1508F495C0ED2DF0E0E15C64
:103DA000FC4C0C947132CB359CE7D90749F1CC35EA
:103DB000ECE7DE07D9F0CA35DC4709F0A3CF81E094
:103DC0001CC00E94BD162FEF34E38CE02150304020
:103DD0008040E1F700C000000E94E9076FEF7FEF2D
:103DE00090E080E00E9404330E94931A80914A057B
:103DF00082FB882780F991E089270E94F51282CF03
:103E000080E0FBCFCE010E94610E182F8ACF1C2FBD
:103E10001F70C07F11F01295107FCC20B9F01123D4
:103E200069F080E28D0F883010F0A11009C08091F8
:103E3000E404182B1093E4040E94FE0F8D2F40C061
:103E40008091DB04182B1093DB04F6CF8D2F0E949A
:103E5000811B1123B9F1D05ED83010F0A11004C03D
:103E6000812F0E940F0E06C010958091DB0418234D
:103E70001093DB040E94FE0F25C01C2F1F70C07F13
:103E8000C03211F01295107FAA2051F031E0A31634
:103E900009F459C0CC2009F465C0BB2051F1CECF44
:103EA00080914A0582FD21C0CC20C9F0112339F050
:103EB0008091E404182B1093E4040E94FE0F80E02C
:103EC0000E94BE1BED2DE850FF0B349708F082C115
:103ED0000E946D0860E0C7010E94160F9FCD80E030
:103EE0000E94811B112371F3BBCFCC2099F0B1103C
:103EF00004C0812F0E944010E5CF81E0B812E2CFCC
:103F00008091DA04912F98231917E1F2182B10935E
:103F1000DA04D8CFB110D6CF812F0E9439109091FA
:103F2000DA04812F892329F0812F809589238093BA
:103F3000DA048091B104912F982321F2109518236F
:103F40001093B104BFCFCC2029F095E09B1508F465
:103F5000B9CFCFCFE4E0EB1508F4B4CF812F0E94A6
:103F60003910B0CFBB20D1F3F9E3AF122CC12FEF42
:103F700037EE83E0215030408040E1F700C0000080
:103F800022C18C2F86958695837069F0813009F067
:103F900099CF8D2F9C2F9370C11002C080E090E0CC
:103FA0000E9423088FCF8D2F9C2F9370C11002C0C9
:103FB00080E090E00E94480885CF6C2D8D2F0E94F4
:103FC000A91A80CF8C2F837009F03FC0C1107ACF1F
:103FD0004D2F429546954770440F440F2D2F2F705B
:103FE00030E0042E02C0220F331F0A94E2F790E063
:103FF00080E0D4FF09C08FE090E002C0880F991FD5
:104000004A95E2F780959095C695C695C370C230E3
:1040100099F078F44091470550914805C13039F046
:10402000822B932B842395230E94CA0E4BCF242BE3
:10403000352B822B932BF8CF822B932B2091470586
:104040003091480582279327EFCF8695CC2011F039
:104050008C2F8170882309F435CF4D2F42954695DA
:104060004770440F440F2D2F2F7030E0042E02C0F4
:10407000220F331F0A94E2F790E080E0D4FF09C0DA
:104080008FE090E002C0880F991F4A95E2F7809573
:104090009095C695C695C370C23099F078F440915A
:1040A0004B0550914C05C13039F0822B932B842362
:1040B00095230E948B1006CF242B352B822B932B1C
:1040C000F8CF822B932B20914B0530914C05822702
:1040D0009327EFCFCF70CC2029F08C2F0E94BB10FC
:1040E0008D2F08CF8D2F0E9439108C2F0E94921097
:1040F000E9CE8D2F92EFA91699F19A1570F0E0EFA5
:10410000AE16D1F0F1EFAF1691F0CC2009F456C005
:10411000B11094CE8C2F8F7127C023EFA21639F1E6
:1041200034EFA312F2CF90914A0592FD2EC08C2F4E
:104130008F71CC20D9F218C0CC2069F084E08B15A7
:1041400008F4C0CECF7181E090E002C0880F991FC3
:10415000CA95E2F7B8CF95E09B1508F4B3CEF2CF3D
:104160008C2F8F71C110C2CF0E94BB10ABCE90E0DC
:1041700080E0CC2009F49DCFCF7181E090E002C0B7
:10418000880F991FCA95E2F794CFCC2061F08C2F4D
:104190008F7192FFE9CFE8E08E9F90011124236098
:1041A0002093D904E1CF81E00E94A410F1E0FB1537
:1041B00008F088CE82E00E94A41084CEBB2039F0A3
:1041C000893309F4D4CE8D2F0E94811B7BCE8C2F96
:1041D0008F718CCF002309F47DCE8091D90480FDAE
:1041E00079CEF70115828695869586950E94BB103B
:1041F000C7010E94AF1C8091D9048695869586954B
:104200000E94921067CE8091E404C631FCE7DF077C
:1042100039F58A7A91E009F490E09093B00469E26C
:10422000811165E388EA94E00E9409080E94FE0F6C
:10423000E6CBC6313CE7D307F9F48091B004811195
:10424000E2CC89E2EAEAF4E020EB34E091918913D0
:1042500003C0DF0111971C922E173F07B9F7E6CF75
:104260008272FE01E052F847EB30F10508F01ECDF6
:10427000E55BFC4C0C9471328091E4048272FE0187
:10428000E054F847ED30F10508F010CDEA5AFC4C47
:104290000C947132CF93DF938091D804807F09F022
:1042A0004DC08091D704882309F448C0E0914F079E
:1042B00050911607C091D304D091D2046091D404D8
:1042C0007091D50447E05E17C9F18E2F90E0E49F0E
:1042D000F0011124E95EF84F2481222391F1489FD7
:1042E000F001499FF00D1124DF01A95EB84F11962E
:1042F0002C9111972C1325C02C912D1322C01596AB
:104300002C91159721111DC012962D913C91261BC1
:10431000370B283C3105A8F48091D8048F70806158
:104320008093D804E35EF84F80818F708061808332
:1043300082ED94E00E94AF1C0E94160EDF91CF9197
:104340000895FC013196E770BECFA4E1B0E0EBEA3E
:10435000F1E20C94DF318C0186E0F801DE011F965A
:1043600001900D928A95E1F7F8018481E58092ED44
:10437000A92E94E0B92E9091D604911128C08823DB
:1043800019F1EE20F1F0C8010E94CF0EF82E88231B
:10439000C1F087E0F801D50101900D928A95E1F70F
:1043A0008091D604813031F48091D2049091D3046D
:1043B0000E94540E0E944A218F2D6496ECE00C94CA
:1043C000FB31C8010E94AF1CFF24F394F5CFD080CD
:1043D000C18082809380F090D7042091D4043091E2
:1043E000D504A401421B530BFF2009F4D9C0483C5B
:1043F000510508F092C08823F9F29091D30480917E
:10440000D804282F207F09F056C0C91214C09091FB
:10441000D204D91210C0E11048C08F70806180931F
:10442000D80482ED94E00E94AF1C8091D804F8017A
:104430008683F12CC1CFE11038C06C2D8D2D0E94E8
:104440006F066C2D8D2D0E946F06E82E8111F1CF25
:10445000DF86C88A8F8598890E94540E292F22955D
:104460002F70243058F49F70223088F0992399F0EF
:10447000F8019681907F79F4FE2C9ECF2A5F2F70F1
:10448000223068F0C8010E94AF1CEF2CF5CF9923B1
:1044900011F0882389F3805E883070F3F3CF803F7A
:1044A00058F3815F833070F7E7CF8091D804816043
:1044B0008093D804BECFC91207C09091D204D912FC
:1044C00003C0EE2009F48DC0C8010E94CF0E8823DE
:1044D00009F477CFEE2009F474CF8091D8048032AC
:1044E00088F02091D2043091D304398728879B86A5
:1044F0008A869091D6049C871D868E87CE01089669
:104500000E94AF1C87E0F801A2EDB4E001900D928B
:104510008A95E1F70E944A2157CF9091D804292F1C
:10452000207F51F482ED94E00E94AF1C87E0F501FA
:1045300011928A95E9F77DCF882309F43DCF8091C8
:10454000D3048C1110C08091D204D8120CC0E11099
:104550000AC09683C8010E94AF1C87E0F501119242
:104560008A95E9F729CFC8010E94CF0E882309F464
:1045700028CFEE2009F425CF8091D804803210F2A4
:104580002091D2043091D3043A8329839C828B8278
:104590009091D6049D831E828F83CE010196B0CF69
:1045A000483C5105D0F6882309F40ECFFE2CEE20AE
:1045B00009F407CF8091D3048C1120C08091D204DC
:1045C000D8121CC08091D80480FD0FC0982F907F16
:1045D00061F08683903F31F0982F907F905F8F70CD
:1045E000892B8683C8010E94AF1C87E0F801A2EDE9
:1045F000B4E001900D928A95E1F7DECEC8010E94E9
:10460000CF0E81117FCF8091D80481608093D80430
:10461000C8010E94AF1CD0CEABE1B0E0E2E1F3E212
:104620000C94E8314E8B5F8B688F798F8A8F9B8FCC
:1046300091111092DB041D8A86E0FE017696DE0160
:104640001F9601900D928A95E1F78B89882351F08E
:1046500061E0CE010F960E94160F61E0CE010F9629
:104660000E94160F87E0FE013F96DE01189601902A
:104670000D928A95E1F7CE0108960E94A52181113D
:104680002AC087E0FE013896DE01119601900D9256
:104690008A95E1F78C858823F1F02091160730E0A8
:1046A000C90101968770992740914F07481719064D
:1046B000E9F097E0929FD001939FB00D1124A95E7D
:1046C000B84FFE01319601900D929A95E1F78093D3
:1046D00016070E94160E17E080914F07909116075B
:1046E000891312C06B96E3E00C9404320E94BD164D
:1046F0001092160710924F0787E0E2EDF4E0DF0119
:104700001D928A95E9F7E7CF819FC0011124895E48
:10471000984F0E94A521882329F380914F0790E0AC
:1047200001968770992780934F07D6CF2F923F929B
:104730005F926F927F928F929F92AF92BF92CF9231
:10474000DF92EF92FF920F931F93CF93DF938091AD
:10475000EE05882309F45AC0C091EC05D091ED050F
:104760000E9453158C1B9D0BC29780F10E9453151C
:104770009093ED058093EC0580E00E9431068091D6
:10478000E206882309F45FC1C0919B01D0919C018E
:1047900080919D0190919E018C179D07B9F086E054
:1047A0000E943106C933D10508F042C0CE59DE4F10
:1047B00088810E94680F81E00E94CC0F80919B014C
:1047C00090919C0190939E0180939D01809164073C
:1047D00090916507892B09F0B3C18091EB0588237F
:1047E000A9F00E94FA070091E7051091E8052091D1
:1047F000E9053091EA05601B710B820B930B6F3F4B
:104800007F4F8F4F9F4710F40E94F111DF91CF919E
:104810001F910F91FF90EF90DF90CF90BF90AF90DE
:104820009F908F907F906F905F903F902F90089512
:10483000C11523E5D20708F088C089E392E0C03EA5
:1048400062E5D60798F5C11580E4D80708F04FC097
:1048500082E092E0C115A0E2DA0740F586ED91E032
:10486000C93AD10519F128F58FEB91E0C834D1058B
:10487000E9F068F489EB91E0C933D105B9F08CE92E
:1048800092E0C734D10591F082EB91E00FC08BEC40
:1048900091E0C335D10551F080ED91E0C83AD105E2
:1048A00029F086EC91E0CC34D10571F70E946210BA
:1048B00085CF8FEE91E0CD3AD105C1F368F483EE58
:1048C00091E0CB3AD10591F38DED91E0CC3AD10551
:1048D00068F389EE91E0EACF85EF91E0CE3AD10519
:1048E00029F38BEF91E0C115D14000F7CDCFC03453
:1048F000E2E5DE07A0F48AE192E0C032F2E5DF07EC
:10490000A8F684E192E0C11522E5D20778F688E0A6
:1049100092E0C115D04550F28EE092E0C7CFC0388A
:1049200082E5D80748F480E292E0C036D24508F428
:10493000BDCF86E292E0BACF83E392E0C03CD2459D
:1049400008F0B4CF8CE292E0B1CFC03CE4E7DE07E0
:10495000D8F589E692E0C038F4E7DF0708F0A6CF83
:10496000C11522E7D20700F583E592E0C11561E7A2
:10497000D60708F09BCFC11588E5D80770F486E408
:1049800092E0C115A7E5DA0708F090CF80E492E045
:10499000C115D64508F08ACF77CF8CE492E0C115D7
:1049A000D04708F083CF70CF83E692E0C034F4E7BD
:1049B000DF0708F07BCF89E592E0C115D44708F402
:1049C00075CF8EE592E072CFC11569E7D607E8F49E
:1049D000C11588E7D807A0F5C038A7E7DA0770F453
:1049E00087E792E0C115B7E7DB0708F05FCF80E704
:1049F00092E0C115D54708F459CF46CF8EE792E033
:104A0000C03CD74708F452CF3FCFC0342EE7D2077F
:104A100070F482E992E0C1156EE7D60708F046CF40
:104A2000C115DC4708F430CF8BE892E03FCF8DEA28
:104A300091E0C115D04808F039CF86E992E036CF31
:104A400084E892E033CF8091C405811140C00E9478
:104A5000FA07693873418105910508F4B7CE81E002
:104A60008093C40583E00E9434120E94530F80E0BB
:104A70000E94310680EE92E00E94621083E00E9464
:104A8000410F80E00E94CC0F8091BD0590E00E9414
:104A9000E405FC01019620812032D9F3CF010E9468
:104AA000621084E00E94310684EE92E00E9462105F
:104AB00083E00E94410F0E94CB108DE00E943106DE
:104AC00060E470E089EC94E00E9436097FCE90911A
:104AD000C30580915507981313C09091C20580912A
:104AE000560798130DC09091C105809157079813F0
:104AF00007C080915407869586959091C0059813BC
:104B00000E94CB10C091BD05D0E08091BE05909170
:104B1000BF05C817D90709F459CED093BF05C09374
:104B2000BE0582E00E943106CE010E94E405FC0130
:104B3000019620812032D9F3CF010E94621046CE27
:104B40008091EE05882309F448CE8091E605811115
:104B500044CE0E940C122091640730916507211504
:104B6000310509F43ACE80E041E050E0082F10E032
:104B70001A01082E02C0220C331C0A94E2F7B1017C
:104B800062237323672B11F48F5FF0CF9091E505BB
:104B900090FF95C0880F880F880F8093A101109215
:104BA000A401895F8093A20183E08093A50124E69C
:104BB00030E047E050E06FE971E088E70E94352F70
:104BC000892B09F00ACEA80125E0440F551F2A952C
:104BD000E1F78091E50580FF84C0E5ECF5E080E237
:104BE000EF0119928A95E9F7A1EAB4E00DE914E022
:104BF00085EAC82E84E0D82E97E0592E7724739446
:104C00008D91F80121918F01240F352F311D2A59E3
:104C1000384FE82FF0E0EB53FA4F90E080E0652C3E
:104C2000681A872C082E01C0880C0A94EAF77901CB
:104C3000A12CE701B9907E01B820662D6A19677032
:104C4000962E062E000C770BDB2D01C0DD0F9A94FB
:104C5000EAF77195619571096770772701C0B6947D
:104C60006A95EAF7BD2A6081962E9B289082A394CC
:104C700068E0A612DECF019631968830910579F66C
:104C8000CA16DB0609F0BCCF04E610E020E230E0F3
:104C900045EC55E060E488E70E94BF2F892B09F0BE
:104CA0009CCDE101C095D0958091640790916507F6
:104CB000C823D923D0936507C09364078ECD82950E
:104CC000880F80768093A1019801369527953695B7
:104CD00027952093A401815E8093A2012093A501D2
:104CE00066CF4A59584F04E610E020E230E0D2CFB8
:104CF000AFE0B0E0EEE7F6E20C94DE318E010F5F3C
:104D00001F4F8AE0F80111928A95E9F788E5C82ECD
:104D100083E0D82EF12CE12CAA24A394B12C23E615
:104D2000822E23E0922EF60181916F018F3F09F4CC
:104D300042C0F894E82FE295EF70F0E021A18F7067
:104D4000A50102C0440F551F8A95E2F7CA01922FB0
:104D5000982B91A392A18095892382A3789400C077
:104D6000EDE5F3E0712C31E021912F3F09F4B9C05A
:104D7000A22FA295AF70B0E090968C9190E02F702A
:104D800002C0959587952A95E2F780FDAAC0832FEA
:104D9000782A330F8E169F0639F7F60131978081F6
:104DA0008F3F11F00E94B00B50EA5A95F1F7F801CD
:104DB000EE0DFF1D70828FEFE81AF80A95E0E916F4
:104DC000F10409F0B0CF4AE050E0B8018BE395E080
:104DD0000E94A232009741F02AE0F801ABE3B5E06F
:104DE00001900D922A95E1F70091460510E0035BD2
:104DF0001A4F892B09F477C081E08093E9040E945F
:104E000053159093E8048093E704D12CC090E206F8
:104E1000CC2009F4C3C07E01EBE0EE0EF11C85E06E
:104E2000F70111928A95E9F7809136058A3008F0EA
:104E300080C043E055E1B701C8010E94B111882349
:104E400009F49BC047E154E1B701C8010E94B111C8
:104E5000882309F492C046EB54E1B701C8010E94CF
:104E6000B111882309F489C04CE053E1B701C801AE
:104E70000E94B111882309F480C04BEE53E1B701C1
:104E8000C8010E94B111882309F477C04EEC53E1A8
:104E9000B701C8010E94B111882309F46EC04FEA1E
:104EA00053E1B701C8010E94B111882309F465C01C
:104EB000109236058091450590E045E050E0B7013D
:104EC000835B9A4F0E94A23221E02093F004892B49
:104ED00009F046C0C12C8C2D8D292F96EDE00C9445
:104EE000FA3180E055CFD090E904DD2009F48DCF70
:104EF000E090E704F090E8040E9453158E199F0992
:104F0000059708F482CF45E050E06BE375E0C801F7
:104F10000E94A232892B59F085E0EBE3F5E0D8013D
:104F200001900D928A95E1F71092E9046FCFD12C90
:104F3000FBCFA090EA04B090EB040E9453158A19AD
:104F40009B09843F914008F074CF8091F00488233E
:104F500009F285E0F70111928A95E9F71092F004C1
:104F6000A0914505B0E0A35BBA4F85E0FE013B96FA
:104F700001900D928A95E1F7AECF809136058F3F73
:104F800031F08F5F809336058A3008F493CF0E940A
:104F900053159093EB048093EA04D7CFE090450536
:104FA000F12CA701435B5A4F7A0185E0F801A4E098
:104FB000B5E001900D928A95E1F765E070E084E03C
:104FC00095E00E94CE088093030585E0E9E0F5E0D6
:104FD000D70101900D928A95E1F788E0EFEEF5E0B8
:104FE000AFE0B5E001900D928A95E1F768E070E0DE
:104FF0008FE095E00E94CE0880930E058090170503
:1050000090901805A0901905B0901A058091EC04B5
:105010009091ED04A091EE04B091EF0488169906EA
:10502000AA06BB06B1F08092EC049092ED04A09227
:10503000EE04B092EF040E94FA07861A970AA80AB3
:10504000B90A8092370590923805A0923905B0923E
:105050003A0588E0EBE1F5E0A4E5B7E001900D92B8
:105060008A95E1F710912305112349F08091BC0541
:10507000811105C00E94EB0A80E00E94300A109363
:10508000BC05809124058093BD058091250588236A
:1050900019F00E940C121FCF0E94F1111CCFA6E044
:1050A000B0E0E5E5F8E20C94E7310E9453158C017D
:1050B0008091E5049091E6048017910781F01982B0
:1050C0001A820E945315682F49815A81792F80E0F6
:1050D00090E00E940C231093E6040093E5042696CA
:1050E000E4E00C9403321F921FB61F9211248F9399
:1050F0009F93AF93BF938091F206811113C080916B
:10510000F3069091F406A091F506B091F60641964B
:10511000A11DB11D8093F3069093F406A093F506AC
:10512000B093F606BF91AF919F918F911F901FBED4
:105130001F901895CDB7DEB72F970FB6F894DEBF46
:105140000FBECDBF85B7806885BF85B7806885BF36
:1051500084B7877F84BF0FB6F894A89580916000CC
:10516000886180936000109260000FBE80E890E03C
:105170000FB6F89480936100909361000FBE81E0B8
:105180008093A9016091A6017091A7018091A80167
:105190009091A9010E9469158AEA9BE09093A70467
:1051A0008093A6040E948E060E942F078091E20041
:1051B00084608093E200789480910C078823A1F0AA
:1051C0001091E9001F709091EC00892F817090FD83
:1051D00080E8182B1092E9008091E80083FD0E947E
:1051E000E4161F701093E90082E084BD93E095BD42
:1051F0009AEF97BD80936E00109237051092380594
:105200001092390510923A058091D8008061809300
:10521000D8002AE12A95F1F700C08091D900182F13
:10522000117080FD04C00E948E0610920C0710932E
:10523000E2061093E3061093500111110E946330AF
:10524000EFEEF5E088E0DF011D928A95E9F78091A5
:10525000500191E089278093A1058091500190939E
:10526000A4058091500160E080E00E94FE0861E0AA
:1052700080E00E94FE08EFE8F1E03197F1F700C00E
:10528000000010E08091A405181708F4C8C08091B0
:1052900050018091500195E0811190E09093460576
:1052A00085E0891B8093450508E513E0ADE5EA2E0E
:1052B000A3E0FA2ED8018D918D018F3F11F00E944D
:1052C000B00BE016F106B1F70DE513E0F80181919E
:1052D0008F018F3F11F00E94B00BF3E003361F07E0
:1052E000A9F78AE0EDE4F5E0DF01282F1D922A9569
:1052F000E9F7EBE3F5E0DF011D928A95E9F790E02D
:1053000080E00E94D032853E9E4F09F461C065EE78
:105310007EEF90E080E00E94043360E082E090E065
:105320000E94E63281E090E0909348058093470523
:1053300061E083E090E00E94E63260E074E184E0A6
:1053400090E00E94043360E086E090E00E94E63244
:1053500060E087E090E00E94E63240E050E0BA0171
:1053600088E090E00E94F83260E083E290E00E94E2
:10537000E63260E08CE090E00E94E63260E08DE092
:1053800090E00E94E63219821A821B821C821D82E2
:105390001E821F82188648E050E067E170E0CE016F
:1053A00001960E94D63240E050E0BA018FE190E0D1
:1053B0000E94F83240E050E0BA018FE090E00E9495
:1053C000F83240E050E0BA0183E190E00E94F83208
:1053D00082E090E00E94C8328093570584E090E01C
:1053E0000E94D03290934A05809349050E94782606
:1053F000EFEFF6E721E0E150F0402040E1F700C098
:1054000000000E94782680914D0580FF1AC06FEF42
:105410007FEF90E080E00E9404330E94E90760E0A3
:10542000812F0E94F108082F61E0812F0E94F1086E
:10543000E12FF0E0EE55FA4F880F802B80831F5F3D
:1054400021CF83E090E00E94C83290E00E94CA0E13
:1054500080914B0590914C050E9468100E94EF08C6
:1054600081E08093530748E050E067E170E084E515
:1054700097E00E94B83210925307809154078C7FB6
:10548000F9F489E0809354078091A2029091A302DD
:10549000A091A4028093550790935607A0935707B5
:1054A0008FE7809358078FEF8093590748E050E0CB
:1054B00067E170E084E597E00E94D63210925307CE
:1054C00080E00E9434128091E20681117DC00E942A
:1054D00066308091E206811177C060E072E083EA75
:1054E00091E00E94360981E591E09093E706809370
:1054F000E60674E6472E512C612C712CE4E02E2E2A
:10550000312C01E080910C0710E450E1F52E62E1AE
:10551000E62E853009F4EDC00E94782638E5E32EAA
:1055200035E0F32E4DE4C42E45E0D42ED601F7012C
:1055300091918D9135E0E236F30709F4E6C09817B2
:10554000B9F34091E2064F8710E0D601BD906D019E
:10555000F70181907F018B1439F1A12C9924939448
:105560008B24882D8921C1F0FF85FF23A9F0A9860E
:105570001A870E9453159C878B8721E02D8791E025
:105580008B2D892109F490E09E8749855A856B858A
:105590007C858D850E940C23A394990C36E0A31280
:1055A000E0CFF7013197B0821F5F1A3071F60E9489
:1055B000C70B6093A8057093A9058093AA059093E3
:1055C000AB0541E04F87A6C080E00E94310688EE1F
:1055D00092E00E944A1085E00E94410F80914B05A5
:1055E00090914C050E94F20E482F50E070E060E070
:1055F0004830510561057105B0F5440F551F4D59EF
:105600005C4FDA018D919C910E94621084E00E94AF
:1056100031068EEE92E00E94621083E00E94410FFC
:1056200080E00E94CC0F82EF92E00E94621088E03E
:105630000E94310684E093E00E94621082E00E94A2
:10564000410F80E00E94CC0F87EF92E00E94621031
:105650008CE00E9431068CEF92E00E94621084E0A0
:105660000E94410F40CF90E00E94E405CDCF809191
:105670000C07843009F432C00E9480128091BC056E
:10568000811105C00E94EB0A80E00E94300A00935D
:10569000BC050E94F1111092F206E8E1F0E00FB6AD
:1056A000F894A895E09360000FBE1093600083B754
:1056B000817F846083BF83B7816083BF789488953E
:1056C00083B78E7F83BF0FB6F894A8958091600052
:1056D000886180936000109260000FBE0E9478265F
:1056E000EDE4F5E08191811110C325E0E735F20783
:1056F000C9F780910C07853009F4B9CF0E94BD1617
:105700000E946D081092BC0507CF98131ACF0E9413
:105710004F281F868091E206882309F4BAC0C09002
:105720006D05D0906E050D2C000CEE08FF08109151
:105730005B01212F30E0EDE6F5E081E090E032966C
:10574000281739070CF0BEC08090690590906A0553
:10575000A0906B05B0906C050E94FA079B01AC010C
:10576000281939094A095B0949015A0139EC83169C
:105770009104A104B10414F18091680590E00196B0
:1057800069E170E00E941C3280936805880F991FC0
:10579000FC01E359FA4F11821082812F183108F071
:1057A00087E18F5F80935B010E94FA076093690530
:1057B00070936A0580936B0590936C0542E0C41664
:1057C000D104E104F1040CF489C0A0E6BAEEA7010B
:1057D00096010E9477326B017C0158EC159F900175
:1057E0001124032E000C440B550B280D391D4A1DA6
:1057F0005B1DA5E0B0E00E9477329B01AC01C701C0
:10580000B6010E94303269017A0181EFC816D104D5
:10581000E104F1042CF090EFC92ED12CE12CF12CF5
:105820008090640590906505A0906605B09067052E
:105830000E94FA079B01AC01281939094A095B0942
:1058400049015A0135E683169104A104B10484F09C
:105850000E94FA076093640570936505809366055E
:10586000909367058091BD0580936305C0926205A2
:1058700010916305A0916205A11BBB0BA5019401CA
:105880000E948232A30192010E945232120F1093A1
:10589000BD050E948012C090E206CC2019F00E9443
:1058A0007E1CC82E8091A505882351F01092A50575
:1058B0008091F1058093F2058091EF058093F005CA
:1058C000D12C4BC040815181052E000C660B770B0B
:1058D000C40ED51EE61EF71E019631CFC12CD12C69
:1058E00076019ECF61E08D2D0E94F108182F60E0B7
:1058F0008D2D0E94F108E12FEE0F8E2B2D2D30E023
:10590000D901AE55BA4FEC919E2F9370891721F1B2
:10591000EE0FEE0FE82BEC938091A1058D0DEF704B
:10592000F0E0ED58FC4FA90141565A4F7A01108121
:10593000DA019C91190F1C9360E014301CF41D3F98
:105940001CF461E00E941109812F110F990BB10124
:105950000E941C32F7018083D3948091A405D8164D
:1059600008F28091E206882319F00E947E1CC82A62
:10597000CC2079F00E94C70B6093A8057093A9050D
:105980008093AA059093AB050E9496230E940C1267
:1059900005C00E949623FF85F111F8CF86E0ECED5B
:1059A000F6E0DE01119601900D928A95E1F7A09044
:1059B000DD06D090DE06C090DF06B090E0061091C4
:1059C000E1061092DE061092DF061092E0061092B9
:1059D000E1068D2D8C2909F447C0E090DA06F0909D
:1059E000DB060E9453159C012E193F099091D506A4
:1059F000992309F4AFC125313105B0F19F3F19F06A
:105A00009F5F9093D506DD2059F00E94A0089FEF7C
:105A10001D140CF491E0899F802D11248093DE06E3
:105A2000CC2059F00E94A00891E01C140CF09FEFCC
:105A3000899F802D11248093DF068091DE068823C4
:105A400099F0F090DF06FF2079F00E94C0088823CB
:105A500009F437C18093DE068F2D0E94C008882389
:105A600009F432C18093DF06812F8B2909F447C0E6
:105A7000E090D806F090D9060E9453159C012E198B
:105A80003F099091D606992309F45FC1213531056C
:105A9000B0F19F3F19F09F5F9093D606BB2059F05D
:105AA0000E947E089FEF1B140CF491E0899F802DCB
:105AB00011248093E006112359F00E947E0891E0A2
:105AC00011160CF09FEF899F802D11248093E10621
:105AD0008091E006882399F0F090E106FF2079F0AC
